{
  "contractName": "BuyCars",
  "abi": [
    {
      "inputs": [
        {
          "internalType": "address",
          "name": "_btkaddr",
          "type": "address"
        }
      ],
      "stateMutability": "nonpayable",
      "type": "constructor"
    },
    {
      "anonymous": false,
      "inputs": [
        {
          "indexed": false,
          "internalType": "uint256",
          "name": "_tokens",
          "type": "uint256"
        }
      ],
      "name": "createOrderEvent",
      "type": "event"
    },
    {
      "inputs": [],
      "name": "CarID",
      "outputs": [
        {
          "internalType": "uint256",
          "name": "",
          "type": "uint256"
        }
      ],
      "stateMutability": "view",
      "type": "function",
      "constant": true
    },
    {
      "inputs": [
        {
          "internalType": "uint256",
          "name": "",
          "type": "uint256"
        }
      ],
      "name": "CarList",
      "outputs": [
        {
          "internalType": "uint256",
          "name": "price",
          "type": "uint256"
        },
        {
          "internalType": "string",
          "name": "brand",
          "type": "string"
        },
        {
          "internalType": "string",
          "name": "model",
          "type": "string"
        }
      ],
      "stateMutability": "view",
      "type": "function",
      "constant": true
    },
    {
      "inputs": [
        {
          "internalType": "uint256",
          "name": "",
          "type": "uint256"
        }
      ],
      "name": "Cars",
      "outputs": [
        {
          "internalType": "uint256",
          "name": "price",
          "type": "uint256"
        },
        {
          "internalType": "string",
          "name": "brand",
          "type": "string"
        },
        {
          "internalType": "string",
          "name": "model",
          "type": "string"
        }
      ],
      "stateMutability": "view",
      "type": "function",
      "constant": true
    },
    {
      "inputs": [],
      "name": "OrderID",
      "outputs": [
        {
          "internalType": "uint256",
          "name": "",
          "type": "uint256"
        }
      ],
      "stateMutability": "view",
      "type": "function",
      "constant": true
    },
    {
      "inputs": [
        {
          "internalType": "uint256",
          "name": "",
          "type": "uint256"
        }
      ],
      "name": "OrderList",
      "outputs": [
        {
          "internalType": "uint256",
          "name": "userID",
          "type": "uint256"
        },
        {
          "internalType": "uint256",
          "name": "carID",
          "type": "uint256"
        },
        {
          "internalType": "uint256",
          "name": "date",
          "type": "uint256"
        },
        {
          "internalType": "bool",
          "name": "active",
          "type": "bool"
        },
        {
          "internalType": "uint256",
          "name": "tokens",
          "type": "uint256"
        }
      ],
      "stateMutability": "view",
      "type": "function",
      "constant": true
    },
    {
      "inputs": [
        {
          "internalType": "uint256",
          "name": "",
          "type": "uint256"
        }
      ],
      "name": "Orders",
      "outputs": [
        {
          "internalType": "uint256",
          "name": "userID",
          "type": "uint256"
        },
        {
          "internalType": "uint256",
          "name": "carID",
          "type": "uint256"
        },
        {
          "internalType": "uint256",
          "name": "date",
          "type": "uint256"
        },
        {
          "internalType": "bool",
          "name": "active",
          "type": "bool"
        },
        {
          "internalType": "uint256",
          "name": "tokens",
          "type": "uint256"
        }
      ],
      "stateMutability": "view",
      "type": "function",
      "constant": true
    },
    {
      "inputs": [
        {
          "internalType": "uint256",
          "name": "",
          "type": "uint256"
        }
      ],
      "name": "ServiceOrderList",
      "outputs": [
        {
          "internalType": "address",
          "name": "userAddress",
          "type": "address"
        },
        {
          "internalType": "uint256",
          "name": "price",
          "type": "uint256"
        },
        {
          "internalType": "uint256",
          "name": "date",
          "type": "uint256"
        }
      ],
      "stateMutability": "view",
      "type": "function",
      "constant": true
    },
    {
      "inputs": [],
      "name": "ServicesOrderID",
      "outputs": [
        {
          "internalType": "uint256",
          "name": "",
          "type": "uint256"
        }
      ],
      "stateMutability": "view",
      "type": "function",
      "constant": true
    },
    {
      "inputs": [
        {
          "internalType": "uint256",
          "name": "",
          "type": "uint256"
        }
      ],
      "name": "ServicesOrders",
      "outputs": [
        {
          "internalType": "address",
          "name": "userAddress",
          "type": "address"
        },
        {
          "internalType": "uint256",
          "name": "price",
          "type": "uint256"
        },
        {
          "internalType": "uint256",
          "name": "date",
          "type": "uint256"
        }
      ],
      "stateMutability": "view",
      "type": "function",
      "constant": true
    },
    {
      "inputs": [],
      "name": "UserID",
      "outputs": [
        {
          "internalType": "uint256",
          "name": "",
          "type": "uint256"
        }
      ],
      "stateMutability": "view",
      "type": "function",
      "constant": true
    },
    {
      "inputs": [
        {
          "internalType": "uint256",
          "name": "",
          "type": "uint256"
        }
      ],
      "name": "UserIDs",
      "outputs": [
        {
          "internalType": "address",
          "name": "",
          "type": "address"
        }
      ],
      "stateMutability": "view",
      "type": "function",
      "constant": true
    },
    {
      "inputs": [
        {
          "internalType": "uint256",
          "name": "",
          "type": "uint256"
        }
      ],
      "name": "UserList",
      "outputs": [
        {
          "internalType": "string",
          "name": "name",
          "type": "string"
        },
        {
          "internalType": "uint256",
          "name": "tokens",
          "type": "uint256"
        }
      ],
      "stateMutability": "view",
      "type": "function",
      "constant": true
    },
    {
      "inputs": [
        {
          "internalType": "address",
          "name": "",
          "type": "address"
        }
      ],
      "name": "Users",
      "outputs": [
        {
          "internalType": "string",
          "name": "name",
          "type": "string"
        },
        {
          "internalType": "uint256",
          "name": "tokens",
          "type": "uint256"
        }
      ],
      "stateMutability": "view",
      "type": "function",
      "constant": true
    },
    {
      "inputs": [],
      "name": "accounter",
      "outputs": [
        {
          "internalType": "address",
          "name": "",
          "type": "address"
        }
      ],
      "stateMutability": "view",
      "type": "function",
      "constant": true
    },
    {
      "inputs": [],
      "name": "bonusTokenAddress",
      "outputs": [
        {
          "internalType": "address",
          "name": "",
          "type": "address"
        }
      ],
      "stateMutability": "view",
      "type": "function",
      "constant": true
    },
    {
      "inputs": [],
      "name": "owner",
      "outputs": [
        {
          "internalType": "address",
          "name": "",
          "type": "address"
        }
      ],
      "stateMutability": "view",
      "type": "function",
      "constant": true
    },
    {
      "inputs": [
        {
          "internalType": "address",
          "name": "_address",
          "type": "address"
        }
      ],
      "name": "setBonusTokenAddress",
      "outputs": [],
      "stateMutability": "nonpayable",
      "type": "function"
    },
    {
      "inputs": [
        {
          "internalType": "address",
          "name": "_address",
          "type": "address"
        }
      ],
      "name": "addAccounter",
      "outputs": [],
      "stateMutability": "nonpayable",
      "type": "function"
    },
    {
      "inputs": [
        {
          "internalType": "string",
          "name": "_name",
          "type": "string"
        },
        {
          "internalType": "address",
          "name": "_userAddress",
          "type": "address"
        }
      ],
      "name": "addUser",
      "outputs": [],
      "stateMutability": "nonpayable",
      "type": "function"
    },
    {
      "inputs": [
        {
          "internalType": "string",
          "name": "_brand",
          "type": "string"
        },
        {
          "internalType": "string",
          "name": "_model",
          "type": "string"
        },
        {
          "internalType": "uint256",
          "name": "_price",
          "type": "uint256"
        }
      ],
      "name": "addCar",
      "outputs": [],
      "stateMutability": "nonpayable",
      "type": "function"
    },
    {
      "inputs": [],
      "name": "viewCarsList",
      "outputs": [
        {
          "components": [
            {
              "internalType": "uint256",
              "name": "price",
              "type": "uint256"
            },
            {
              "internalType": "string",
              "name": "brand",
              "type": "string"
            },
            {
              "internalType": "string",
              "name": "model",
              "type": "string"
            }
          ],
          "internalType": "struct BuyCars.car[]",
          "name": "",
          "type": "tuple[]"
        }
      ],
      "stateMutability": "view",
      "type": "function",
      "constant": true
    },
    {
      "inputs": [],
      "name": "viewUserList",
      "outputs": [
        {
          "components": [
            {
              "internalType": "string",
              "name": "name",
              "type": "string"
            },
            {
              "internalType": "uint256",
              "name": "tokens",
              "type": "uint256"
            },
            {
              "internalType": "uint256[]",
              "name": "orders",
              "type": "uint256[]"
            }
          ],
          "internalType": "struct BuyCars.user[]",
          "name": "",
          "type": "tuple[]"
        }
      ],
      "stateMutability": "view",
      "type": "function",
      "constant": true
    },
    {
      "inputs": [],
      "name": "viewOrderList",
      "outputs": [
        {
          "components": [
            {
              "internalType": "uint256",
              "name": "userID",
              "type": "uint256"
            },
            {
              "internalType": "uint256",
              "name": "carID",
              "type": "uint256"
            },
            {
              "internalType": "uint256",
              "name": "date",
              "type": "uint256"
            },
            {
              "internalType": "bool",
              "name": "active",
              "type": "bool"
            },
            {
              "internalType": "uint256",
              "name": "tokens",
              "type": "uint256"
            }
          ],
          "internalType": "struct BuyCars.order[]",
          "name": "",
          "type": "tuple[]"
        }
      ],
      "stateMutability": "view",
      "type": "function",
      "constant": true
    },
    {
      "inputs": [],
      "name": "viewServiceOrderList",
      "outputs": [
        {
          "components": [
            {
              "internalType": "address",
              "name": "userAddress",
              "type": "address"
            },
            {
              "internalType": "uint256",
              "name": "price",
              "type": "uint256"
            },
            {
              "internalType": "uint256",
              "name": "date",
              "type": "uint256"
            }
          ],
          "internalType": "struct BuyCars.serviceOrder[]",
          "name": "",
          "type": "tuple[]"
        }
      ],
      "stateMutability": "view",
      "type": "function",
      "constant": true
    },
    {
      "inputs": [
        {
          "internalType": "uint256",
          "name": "_car_id",
          "type": "uint256"
        },
        {
          "internalType": "uint256",
          "name": "_user_id",
          "type": "uint256"
        }
      ],
      "name": "createOrder",
      "outputs": [],
      "stateMutability": "nonpayable",
      "type": "function"
    },
    {
      "inputs": [
        {
          "internalType": "address",
          "name": "_address",
          "type": "address"
        },
        {
          "internalType": "uint256",
          "name": "_price",
          "type": "uint256"
        }
      ],
      "name": "createServiceOrder",
      "outputs": [],
      "stateMutability": "nonpayable",
      "type": "function"
    },
    {
      "inputs": [
        {
          "internalType": "uint256",
          "name": "_servOrder_id",
          "type": "uint256"
        }
      ],
      "name": "payByTokens",
      "outputs": [],
      "stateMutability": "nonpayable",
      "type": "function"
    }
  ],
  "bytecode": "0x60806040523480156200001157600080fd5b506040516200301a3803806200301a833981810160405281019062000037919062000137565b336000806101000a81548173ffffffffffffffffffffffffffffffffffffffff021916908373ffffffffffffffffffffffffffffffffffffffff16021790555080600160006101000a81548173ffffffffffffffffffffffffffffffffffffffff021916908373ffffffffffffffffffffffffffffffffffffffff16021790555060008054906101000a900473ffffffffffffffffffffffffffffffffffffffff16600260006101000a81548173ffffffffffffffffffffffffffffffffffffffff021916908373ffffffffffffffffffffffffffffffffffffffff16021790555050620001bc565b6000815190506200013181620001a2565b92915050565b60006020828403121562000150576200014f6200019d565b5b6000620001608482850162000120565b91505092915050565b600062000176826200017d565b9050919050565b600073ffffffffffffffffffffffffffffffffffffffff82169050919050565b600080fd5b620001ad8162000169565b8114620001b957600080fd5b50565b612e4e80620001cc6000396000f3fe608060405234801561001057600080fd5b50600436106101a95760003560e01c80638fb326f2116100f9578063baf49c4a11610097578063e4f2ee7811610071578063e4f2ee78146104de578063ea3e7909146104fc578063eaaedd591461051a578063f40e03c21461054c576101a9565b8063baf49c4a14610472578063bd5c6a89146104a4578063cfcdf443146104c0576101a9565b806399b956a0116100d357806399b956a0146103d65780639aadee0214610407578063a94661e314610425578063babe165514610441576101a9565b80638fb326f214610354578063907256ea146103885780639583daf5146103a4576101a9565b80633a07f8d3116101665780637331d7e9116101405780637331d7e9146102e057806379109baa146102fe578063864a0d0a1461031a5780638da5cb5b14610336576101a9565b80633a07f8d3146102865780634702272b146102a4578063663911e9146102c2576101a9565b80630212d0b9146101ae57806305574ee9146101ca57806306b099af146101e65780630fe579c01461021a578063193a7e40146102385780632dc7e90114610256575b600080fd5b6101c860048036038101906101c39190612156565b61057e565b005b6101e460048036038101906101df91906120cb565b610768565b005b61020060048036038101906101fb9190612156565b610918565b6040516102119594939291906128ab565b60405180910390f35b61022261096b565b60405161022f91906127b9565b60405180910390f35b610240610abe565b60405161024d91906126a1565b60405180910390f35b610270600480360381019061026b9190612156565b610ae4565b60405161027d91906126a1565b60405180910390f35b61028e610b17565b60405161029b919061284b565b60405180910390f35b6102ac610b1d565b6040516102b99190612753565b60405180910390f35b6102ca610caa565b6040516102d79190612797565b60405180910390f35b6102e8610d73565b6040516102f5919061284b565b60405180910390f35b61031860048036038101906103139190612183565b610d79565b005b610334600480360381019061032f919061206f565b611174565b005b61033e611378565b60405161034b91906126a1565b60405180910390f35b61036e60048036038101906103699190612156565b61139c565b60405161037f9594939291906128ab565b60405180910390f35b6103a2600480360381019061039d9190611fd5565b6113df565b005b6103be60048036038101906103b99190612156565b6114b1565b6040516103cd93929190612866565b60405180910390f35b6103f060048036038101906103eb9190611fd5565b6115fb565b6040516103fe9291906127db565b60405180910390f35b61040f6116a7565b60405161041c919061284b565b60405180910390f35b61043f600480360381019061043a9190611fd5565b6116ad565b005b61045b60048036038101906104569190612156565b61177f565b6040516104699291906127db565b60405180910390f35b61048c60048036038101906104879190612156565b61183b565b60405161049b9392919061271c565b60405180910390f35b6104be60048036038101906104b99190612002565b611885565b005b6104c8611b42565b6040516104d591906126a1565b60405180910390f35b6104e6611b68565b6040516104f39190612775565b60405180910390f35b610504611c0a565b604051610511919061284b565b60405180910390f35b610534600480360381019061052f9190612156565b611c10565b6040516105439392919061271c565b60405180910390f35b61056660048036038101906105619190612156565b611c6a565b60405161057593929190612866565b60405180910390f35b6000600f600083815260200190815260200160002060010154905080600b60003373ffffffffffffffffffffffffffffffffffffffff1673ffffffffffffffffffffffffffffffffffffffff16815260200190815260200160002060010154101561061e576040517f08c379a00000000000000000000000000000000000000000000000000000000081526004016106159061282b565b60405180910390fd5b6000600160009054906101000a900473ffffffffffffffffffffffffffffffffffffffff1690508073ffffffffffffffffffffffffffffffffffffffff166323b872dd33600260009054906101000a900473ffffffffffffffffffffffffffffffffffffffff16670de0b6b3a7640000866106999190612b25565b6040518463ffffffff1660e01b81526004016106b7939291906126bc565b602060405180830381600087803b1580156106d157600080fd5b505af11580156106e5573d6000803e3d6000fd5b505050506040513d601f19601f820116820180604052508101906107099190612042565b5081600b60003373ffffffffffffffffffffffffffffffffffffffff1673ffffffffffffffffffffffffffffffffffffffff168152602001908152602001600020600101600082825461075c9190612b7f565b92505081905550505050565b3373ffffffffffffffffffffffffffffffffffffffff1660008054906101000a900473ffffffffffffffffffffffffffffffffffffffff1673ffffffffffffffffffffffffffffffffffffffff16146107f6576040517f08c379a00000000000000000000000000000000000000000000000000000000081526004016107ed9061280b565b60405180910390fd5b6001600460008282546108099190612a9e565b9250508190555082600d60006004548152602001908152602001600020600101908051906020019061083c929190611da4565b5081600d600060045481526020019081526020016000206002019080519060200190610869929190611da4565b5080600d60006004548152602001908152602001600020600001819055506007600d6000600454815260200190815260200160002090806001815401808255809150506001900390600052602060002090600302016000909190919091506000820154816000015560018201816001019080546108e590612c3d565b6108f0929190611e2a565b50600282018160020190805461090590612c3d565b610910929190611e2a565b505050505050565b6009818154811061092857600080fd5b90600052602060002090600502016000915090508060000154908060010154908060020154908060030160009054906101000a900460ff16908060040154905085565b60606008805480602002602001604051908101604052809291908181526020016000905b82821015610ab557838290600052602060002090600302016040518060600160405290816000820180546109c290612c3d565b80601f01602080910402602001604051908101604052809291908181526020018280546109ee90612c3d565b8015610a3b5780601f10610a1057610100808354040283529160200191610a3b565b820191906000526020600020905b815481529060010190602001808311610a1e57829003601f168201915b505050505081526020016001820154815260200160028201805480602002602001604051908101604052809291908181526020018280548015610a9d57602002820191906000526020600020905b815481526020019060010190808311610a89575b5050505050815250508152602001906001019061098f565b50505050905090565b600260009054906101000a900473ffffffffffffffffffffffffffffffffffffffff1681565b600c6020528060005260406000206000915054906101000a900473ffffffffffffffffffffffffffffffffffffffff1681565b60065481565b60606007805480602002602001604051908101604052809291908181526020016000905b82821015610ca1578382906000526020600020906003020160405180606001604052908160008201548152602001600182018054610b7e90612c3d565b80601f0160208091040260200160405190810160405280929190818152602001828054610baa90612c3d565b8015610bf75780601f10610bcc57610100808354040283529160200191610bf7565b820191906000526020600020905b815481529060010190602001808311610bda57829003601f168201915b50505050508152602001600282018054610c1090612c3d565b80601f0160208091040260200160405190810160405280929190818152602001828054610c3c90612c3d565b8015610c895780601f10610c5e57610100808354040283529160200191610c89565b820191906000526020600020905b815481529060010190602001808311610c6c57829003601f168201915b50505050508152505081526020019060010190610b41565b50505050905090565b6060600a805480602002602001604051908101604052809291908181526020016000905b82821015610d6a57838290600052602060002090600302016040518060600160405290816000820160009054906101000a900473ffffffffffffffffffffffffffffffffffffffff1673ffffffffffffffffffffffffffffffffffffffff1673ffffffffffffffffffffffffffffffffffffffff1681526020016001820154815260200160028201548152505081526020019060010190610cce565b50505050905090565b60055481565b3373ffffffffffffffffffffffffffffffffffffffff1660008054906101000a900473ffffffffffffffffffffffffffffffffffffffff1673ffffffffffffffffffffffffffffffffffffffff1614610e07576040517f08c379a0000000000000000000000000000000000000000000000000000000008152600401610dfe9061280b565b60405180910390fd5b600160056000828254610e1a9190612a9e565b9250508190555080600e600060055481526020019081526020016000206000018190555081600e600060055481526020019081526020016000206001018190555042600e60006005548152602001908152602001600020600201819055506001600e6000600554815260200190815260200160002060030160006101000a81548160ff0219169083151502179055506000600c600083815260200190815260200160002060009054906101000a900473ffffffffffffffffffffffffffffffffffffffff169050600b60008273ffffffffffffffffffffffffffffffffffffffff1673ffffffffffffffffffffffffffffffffffffffff168152602001908152602001600020600201600554908060018154018082558091505060019003906000526020600020016000909190919091505560006064600d600086815260200190815260200160002060000154610f719190612af4565b905080600e600060055481526020019081526020016000206004018190555080600b60008473ffffffffffffffffffffffffffffffffffffffff1673ffffffffffffffffffffffffffffffffffffffff168152602001908152602001600020600101819055506000600160009054906101000a900473ffffffffffffffffffffffffffffffffffffffff1690508073ffffffffffffffffffffffffffffffffffffffff166340c10f1984670de0b6b3a76400008561102f9190612b25565b6040518363ffffffff1660e01b815260040161104c9291906126f3565b602060405180830381600087803b15801561106657600080fd5b505af115801561107a573d6000803e3d6000fd5b505050506040513d601f19601f8201168201806040525081019061109e9190612042565b507f69779996a991d45551f764f92d74f416ae6ccbff1babfa7b555efb59cde59adf826040516110ce919061284b565b60405180910390a16009600e6000600554815260200190815260200160002090806001815401808255809150506001900390600052602060002090600502016000909190919091506000820154816000015560018201548160010155600282015481600201556003820160009054906101000a900460ff168160030160006101000a81548160ff0219169083151502179055506004820154816004015550505050505050565b3373ffffffffffffffffffffffffffffffffffffffff1660008054906101000a900473ffffffffffffffffffffffffffffffffffffffff1673ffffffffffffffffffffffffffffffffffffffff1614611202576040517f08c379a00000000000000000000000000000000000000000000000000000000081526004016111f99061280b565b60405180910390fd5b6001600360008282546112159190612a9e565b9250508190555081600b60008373ffffffffffffffffffffffffffffffffffffffff1673ffffffffffffffffffffffffffffffffffffffff1681526020019081526020016000206000019080519060200190611272929190611da4565b5080600c6000600354815260200190815260200160002060006101000a81548173ffffffffffffffffffffffffffffffffffffffff021916908373ffffffffffffffffffffffffffffffffffffffff1602179055506008600b60008373ffffffffffffffffffffffffffffffffffffffff1673ffffffffffffffffffffffffffffffffffffffff1681526020019081526020016000209080600181540180825580915050600190039060005260206000209060030201600090919091909150600082018160000190805461134590612c3d565b611350929190611e2a565b50600182015481600101556002820181600201908054611371929190611eb7565b5050505050565b60008054906101000a900473ffffffffffffffffffffffffffffffffffffffff1681565b600e6020528060005260406000206000915090508060000154908060010154908060020154908060030160009054906101000a900460ff16908060040154905085565b3373ffffffffffffffffffffffffffffffffffffffff1660008054906101000a900473ffffffffffffffffffffffffffffffffffffffff1673ffffffffffffffffffffffffffffffffffffffff161461146d576040517f08c379a00000000000000000000000000000000000000000000000000000000081526004016114649061280b565b60405180910390fd5b80600260006101000a81548173ffffffffffffffffffffffffffffffffffffffff021916908373ffffffffffffffffffffffffffffffffffffffff16021790555050565b600781815481106114c157600080fd5b90600052602060002090600302016000915090508060000154908060010180546114ea90612c3d565b80601f016020809104026020016040519081016040528092919081815260200182805461151690612c3d565b80156115635780601f1061153857610100808354040283529160200191611563565b820191906000526020600020905b81548152906001019060200180831161154657829003601f168201915b50505050509080600201805461157890612c3d565b80601f01602080910402602001604051908101604052809291908181526020018280546115a490612c3d565b80156115f15780601f106115c6576101008083540402835291602001916115f1565b820191906000526020600020905b8154815290600101906020018083116115d457829003601f168201915b5050505050905083565b600b60205280600052604060002060009150905080600001805461161e90612c3d565b80601f016020809104026020016040519081016040528092919081815260200182805461164a90612c3d565b80156116975780601f1061166c57610100808354040283529160200191611697565b820191906000526020600020905b81548152906001019060200180831161167a57829003601f168201915b5050505050908060010154905082565b60035481565b3373ffffffffffffffffffffffffffffffffffffffff1660008054906101000a900473ffffffffffffffffffffffffffffffffffffffff1673ffffffffffffffffffffffffffffffffffffffff161461173b576040517f08c379a00000000000000000000000000000000000000000000000000000000081526004016117329061280b565b60405180910390fd5b80600160006101000a81548173ffffffffffffffffffffffffffffffffffffffff021916908373ffffffffffffffffffffffffffffffffffffffff16021790555050565b6008818154811061178f57600080fd5b90600052602060002090600302016000915090508060000180546117b290612c3d565b80601f01602080910402602001604051908101604052809291908181526020018280546117de90612c3d565b801561182b5780601f106118005761010080835404028352916020019161182b565b820191906000526020600020905b81548152906001019060200180831161180e57829003601f168201915b5050505050908060010154905082565b600f6020528060005260406000206000915090508060000160009054906101000a900473ffffffffffffffffffffffffffffffffffffffff16908060010154908060020154905083565b3373ffffffffffffffffffffffffffffffffffffffff1660008054906101000a900473ffffffffffffffffffffffffffffffffffffffff1673ffffffffffffffffffffffffffffffffffffffff1614611913576040517f08c379a000000000000000000000000000000000000000000000000000000000815260040161190a9061280b565b60405180910390fd5b6001600660008282546119269190612a9e565b9250508190555081600f6000600654815260200190815260200160002060000160006101000a81548173ffffffffffffffffffffffffffffffffffffffff021916908373ffffffffffffffffffffffffffffffffffffffff16021790555080600f600060065481526020019081526020016000206001018190555042600f6000600654815260200190815260200160002060020181905550600a600f6000600654815260200190815260200160002090806001815401808255809150506001900390600052602060002090600302016000909190919091506000820160009054906101000a900473ffffffffffffffffffffffffffffffffffffffff168160000160006101000a81548173ffffffffffffffffffffffffffffffffffffffff021916908373ffffffffffffffffffffffffffffffffffffffff16021790555060018201548160010155600282015481600201555050600160009054906101000a900473ffffffffffffffffffffffffffffffffffffffff1673ffffffffffffffffffffffffffffffffffffffff16639dc29fac83670de0b6b3a764000084611ace9190612b25565b6040518363ffffffff1660e01b8152600401611aeb9291906126f3565b602060405180830381600087803b158015611b0557600080fd5b505af1158015611b19573d6000803e3d6000fd5b505050506040513d601f19601f82011682018060405250810190611b3d9190612042565b505050565b600160009054906101000a900473ffffffffffffffffffffffffffffffffffffffff1681565b60606009805480602002602001604051908101604052809291908181526020016000905b82821015611c0157838290600052602060002090600502016040518060a00160405290816000820154815260200160018201548152602001600282015481526020016003820160009054906101000a900460ff1615151515815260200160048201548152505081526020019060010190611b8c565b50505050905090565b60045481565b600a8181548110611c2057600080fd5b90600052602060002090600302016000915090508060000160009054906101000a900473ffffffffffffffffffffffffffffffffffffffff16908060010154908060020154905083565b600d602052806000526040600020600091509050806000015490806001018054611c9390612c3d565b80601f0160208091040260200160405190810160405280929190818152602001828054611cbf90612c3d565b8015611d0c5780601f10611ce157610100808354040283529160200191611d0c565b820191906000526020600020905b815481529060010190602001808311611cef57829003601f168201915b505050505090806002018054611d2190612c3d565b80601f0160208091040260200160405190810160405280929190818152602001828054611d4d90612c3d565b8015611d9a5780601f10611d6f57610100808354040283529160200191611d9a565b820191906000526020600020905b815481529060010190602001808311611d7d57829003601f168201915b5050505050905083565b828054611db090612c3d565b90600052602060002090601f016020900481019282611dd25760008555611e19565b82601f10611deb57805160ff1916838001178555611e19565b82800160010185558215611e19579182015b82811115611e18578251825591602001919060010190611dfd565b5b509050611e269190611f09565b5090565b828054611e3690612c3d565b90600052602060002090601f016020900481019282611e585760008555611ea6565b82601f10611e695780548555611ea6565b82800160010185558215611ea657600052602060002091601f016020900482015b82811115611ea5578254825591600101919060010190611e8a565b5b509050611eb39190611f09565b5090565b828054828255906000526020600020908101928215611ef85760005260206000209182015b82811115611ef7578254825591600101919060010190611edc565b5b509050611f059190611f09565b5090565b5b80821115611f22576000816000905550600101611f0a565b5090565b6000611f39611f3484612923565b6128fe565b905082815260208101848484011115611f5557611f54612d61565b5b611f60848285612bfb565b509392505050565b600081359050611f7781612dd3565b92915050565b600081519050611f8c81612dea565b92915050565b600082601f830112611fa757611fa6612d5c565b5b8135611fb7848260208601611f26565b91505092915050565b600081359050611fcf81612e01565b92915050565b600060208284031215611feb57611fea612d6b565b5b6000611ff984828501611f68565b91505092915050565b6000806040838503121561201957612018612d6b565b5b600061202785828601611f68565b925050602061203885828601611fc0565b9150509250929050565b60006020828403121561205857612057612d6b565b5b600061206684828501611f7d565b91505092915050565b6000806040838503121561208657612085612d6b565b5b600083013567ffffffffffffffff8111156120a4576120a3612d66565b5b6120b085828601611f92565b92505060206120c185828601611f68565b9150509250929050565b6000806000606084860312156120e4576120e3612d6b565b5b600084013567ffffffffffffffff81111561210257612101612d66565b5b61210e86828701611f92565b935050602084013567ffffffffffffffff81111561212f5761212e612d66565b5b61213b86828701611f92565b925050604061214c86828701611fc0565b9150509250925092565b60006020828403121561216c5761216b612d6b565b5b600061217a84828501611fc0565b91505092915050565b6000806040838503121561219a57612199612d6b565b5b60006121a885828601611fc0565b92505060206121b985828601611fc0565b9150509250929050565b60006121cf838361252b565b905092915050565b60006121e38383612582565b60a08301905092915050565b60006121fb83836125ea565b60608301905092915050565b6000612213838361262c565b905092915050565b60006122278383612683565b60208301905092915050565b61223c81612bb3565b82525050565b61224b81612bb3565b82525050565b600061225c826129a4565b6122668185612a27565b93508360208202850161227885612954565b8060005b858110156122b4578484038952815161229585826121c3565b94506122a0836129e6565b925060208a0199505060018101905061227c565b50829750879550505050505092915050565b60006122d1826129af565b6122db8185612a38565b93506122e683612964565b8060005b838110156123175781516122fe88826121d7565b9750612309836129f3565b9250506001810190506122ea565b5085935050505092915050565b600061232f826129ba565b6123398185612a49565b935061234483612974565b8060005b8381101561237557815161235c88826121ef565b975061236783612a00565b925050600181019050612348565b5085935050505092915050565b600061238d826129c5565b6123978185612a5a565b9350836020820285016123a985612984565b8060005b858110156123e557848403895281516123c68582612207565b94506123d183612a0d565b925060208a019950506001810190506123ad565b50829750879550505050505092915050565b6000612402826129d0565b61240c8185612a6b565b935061241783612994565b8060005b8381101561244857815161242f888261221b565b975061243a83612a1a565b92505060018101905061241b565b5085935050505092915050565b61245e81612bc5565b82525050565b61246d81612bc5565b82525050565b600061247e826129db565b6124888185612a7c565b9350612498818560208601612c0a565b6124a181612d70565b840191505092915050565b60006124b7826129db565b6124c18185612a8d565b93506124d1818560208601612c0a565b6124da81612d70565b840191505092915050565b60006124f2601683612a8d565b91506124fd82612d81565b602082019050919050565b6000612515601283612a8d565b915061252082612daa565b602082019050919050565b60006060830160008301516125436000860182612683565b506020830151848203602086015261255b8282612473565b915050604083015184820360408601526125758282612473565b9150508091505092915050565b60a0820160008201516125986000850182612683565b5060208201516125ab6020850182612683565b5060408201516125be6040850182612683565b5060608201516125d16060850182612455565b5060808201516125e46080850182612683565b50505050565b6060820160008201516126006000850182612233565b5060208201516126136020850182612683565b5060408201516126266040850182612683565b50505050565b600060608301600083015184820360008601526126498282612473565b915050602083015161265e6020860182612683565b506040830151848203604086015261267682826123f7565b9150508091505092915050565b61268c81612bf1565b82525050565b61269b81612bf1565b82525050565b60006020820190506126b66000830184612242565b92915050565b60006060820190506126d16000830186612242565b6126de6020830185612242565b6126eb6040830184612692565b949350505050565b60006040820190506127086000830185612242565b6127156020830184612692565b9392505050565b60006060820190506127316000830186612242565b61273e6020830185612692565b61274b6040830184612692565b949350505050565b6000602082019050818103600083015261276d8184612251565b905092915050565b6000602082019050818103600083015261278f81846122c6565b905092915050565b600060208201905081810360008301526127b18184612324565b905092915050565b600060208201905081810360008301526127d38184612382565b905092915050565b600060408201905081810360008301526127f581856124ac565b90506128046020830184612692565b9392505050565b60006020820190508181036000830152612824816124e5565b9050919050565b6000602082019050818103600083015261284481612508565b9050919050565b60006020820190506128606000830184612692565b92915050565b600060608201905061287b6000830186612692565b818103602083015261288d81856124ac565b905081810360408301526128a181846124ac565b9050949350505050565b600060a0820190506128c06000830188612692565b6128cd6020830187612692565b6128da6040830186612692565b6128e76060830185612464565b6128f46080830184612692565b9695505050505050565b6000612908612919565b90506129148282612c6f565b919050565b6000604051905090565b600067ffffffffffffffff82111561293e5761293d612d2d565b5b61294782612d70565b9050602081019050919050565b6000819050602082019050919050565b6000819050602082019050919050565b6000819050602082019050919050565b6000819050602082019050919050565b6000819050602082019050919050565b600081519050919050565b600081519050919050565b600081519050919050565b600081519050919050565b600081519050919050565b600081519050919050565b6000602082019050919050565b6000602082019050919050565b6000602082019050919050565b6000602082019050919050565b6000602082019050919050565b600082825260208201905092915050565b600082825260208201905092915050565b600082825260208201905092915050565b600082825260208201905092915050565b600082825260208201905092915050565b600082825260208201905092915050565b600082825260208201905092915050565b6000612aa982612bf1565b9150612ab483612bf1565b9250827fffffffffffffffffffffffffffffffffffffffffffffffffffffffffffffffff03821115612ae957612ae8612ca0565b5b828201905092915050565b6000612aff82612bf1565b9150612b0a83612bf1565b925082612b1a57612b19612ccf565b5b828204905092915050565b6000612b3082612bf1565b9150612b3b83612bf1565b9250817fffffffffffffffffffffffffffffffffffffffffffffffffffffffffffffffff0483118215151615612b7457612b73612ca0565b5b828202905092915050565b6000612b8a82612bf1565b9150612b9583612bf1565b925082821015612ba857612ba7612ca0565b5b828203905092915050565b6000612bbe82612bd1565b9050919050565b60008115159050919050565b600073ffffffffffffffffffffffffffffffffffffffff82169050919050565b6000819050919050565b82818337600083830152505050565b60005b83811015612c28578082015181840152602081019050612c0d565b83811115612c37576000848401525b50505050565b60006002820490506001821680612c5557607f821691505b60208210811415612c6957612c68612cfe565b5b50919050565b612c7882612d70565b810181811067ffffffffffffffff82111715612c9757612c96612d2d565b5b80604052505050565b7f4e487b7100000000000000000000000000000000000000000000000000000000600052601160045260246000fd5b7f4e487b7100000000000000000000000000000000000000000000000000000000600052601260045260246000fd5b7f4e487b7100000000000000000000000000000000000000000000000000000000600052602260045260246000fd5b7f4e487b7100000000000000000000000000000000000000000000000000000000600052604160045260246000fd5b600080fd5b600080fd5b600080fd5b600080fd5b6000601f19601f8301169050919050565b7f4f6e6c79206f776e65722063616e20646f207468697300000000000000000000600082015250565b7f4e6f7420656e6f7567687420746f6b656e730000000000000000000000000000600082015250565b612ddc81612bb3565b8114612de757600080fd5b50565b612df381612bc5565b8114612dfe57600080fd5b50565b612e0a81612bf1565b8114612e1557600080fd5b5056fea2646970667358221220560bdfc987fc30f64f71ba3bb6f936ec8b23be6ab3a1070e9be8d5cdfae07aa364736f6c63430008050033",
  "immutableReferences": {},
  "source": "pragma solidity ^0.8.5;\npragma experimental ABIEncoderV2;\n\nimport \"./IERC20.sol\";\n\ncontract BuyCars {\n    \n    \n    address public owner;\n    address public bonusTokenAddress;\n    address public accounter;\n    \n    event createOrderEvent(uint _tokens);\n    \n    constructor(address _btkaddr) {\n        owner = msg.sender;\n        bonusTokenAddress = _btkaddr;\n        accounter = owner;\n    }\n    \n    \n    modifier onlyOwner() {\n        require(owner == msg.sender, \"Only owner can do this\");\n        _;\n    }\n    \n    \n    uint public UserID;\n    uint public CarID;\n    uint public OrderID;\n    uint public ServicesOrderID;\n\n    \n    \n    struct car {\n        uint price;\n        string brand;\n        string model;\n    }\n\n    \n    struct order {\n        uint userID;\n        uint carID;\n        uint date;\n        bool active;\n        uint tokens;\n    }\n\n    struct serviceOrder {\n        address userAddress;\n        uint price;\n        uint date;\n    }\n    \n    struct user {\n        string name;\n        uint tokens;\n        uint[] orders;\n    }\n\n    car[] public CarList;\n    user[] public UserList;\n    order[] public OrderList;\n    serviceOrder[] public ServiceOrderList;\n\n    \n    mapping(address => user) public Users;\n    mapping(uint => address) public UserIDs;\n    mapping(uint => car) public Cars;\n    mapping(uint => order) public Orders;\n    mapping(uint => serviceOrder) public ServicesOrders;\n    \n    \n    //FUNCTIONS\n    \n    //Function for adding users to smart contract\n    \n    function setBonusTokenAddress(address _address) public onlyOwner {\n        bonusTokenAddress = _address;\n    }\n\n    function addAccounter (address _address) public onlyOwner {\n        accounter = _address;\n    }\n    \n    \n    function addUser(string memory _name, address _userAddress) public onlyOwner {\n        UserID += 1;\n        Users[_userAddress].name = _name;\n        UserIDs[UserID] = _userAddress;\n        UserList.push(Users[_userAddress]);\n    }\n    \n    function addCar(string memory _brand, string memory _model, uint _price) public onlyOwner {\n        CarID += 1;\n        Cars[CarID].brand = _brand;\n        Cars[CarID].model = _model;\n        Cars[CarID].price = _price;\n        CarList.push(Cars[CarID]);\n    }\n\n    function viewCarsList() public  view returns(car[] memory) {\n        return CarList;\n    }\n\n    function viewUserList() public view returns(user[] memory) {\n        return UserList;\n    }\n\n    function viewOrderList() public view returns(order[] memory) {\n        return OrderList;\n    }\n\n    function viewServiceOrderList() public view returns(serviceOrder[] memory) {\n        return ServiceOrderList;\n    }\n     \n    \n    function createOrder(uint _car_id, uint _user_id) public onlyOwner {\n        OrderID += 1;\n        Orders[OrderID].userID = _user_id;\n        Orders[OrderID].carID = _car_id;\n        Orders[OrderID].date = block.timestamp;\n        Orders[OrderID].active = true;\n        address _user_address = UserIDs[_user_id];\n        Users[_user_address].orders.push(OrderID);\n        uint _tokens = Cars[_car_id].price/100; \n        Orders[OrderID].tokens = _tokens;\n        Users[_user_address].tokens = _tokens;\n        IERC20 _bonusToken = IERC20(bonusTokenAddress);\n        _bonusToken.mint(_user_address, _tokens * 10 ** 18);\n        emit createOrderEvent(_tokens);  \n        OrderList.push(Orders[OrderID]);\n    }\n\n    function createServiceOrder (address _address, uint _price) public onlyOwner {\n        ServicesOrderID += 1;\n        ServicesOrders[ServicesOrderID].userAddress = _address;\n        ServicesOrders[ServicesOrderID].price = _price;\n        ServicesOrders[ServicesOrderID].date = block.timestamp;\n        ServiceOrderList.push(ServicesOrders[ServicesOrderID]);\n        IERC20(bonusTokenAddress).burn(_address, _price * 10 ** 18);\n    }\n\n    /*\n    function checkUserTokens(uint _order_id, uint _user_id) public onlyOwner {\n\n    }\n    */\n\n    function payByTokens(uint _servOrder_id) public {\n        uint _serviceAmount = ServicesOrders[_servOrder_id].price;\n        require(Users[msg.sender].tokens >= _serviceAmount, \"Not enought tokens\");\n        IERC20 _bon_token = IERC20(bonusTokenAddress);\n        _bon_token.transferFrom(msg.sender, accounter, _serviceAmount * 10 ** 18);\n        Users[msg.sender].tokens -= _serviceAmount;\n    }\n\n    \n    \n    \n    \n}",
  "sourcePath": "/Users/pro/Development/blockchain/solidity_course/solidity_cars/contracts/BuyCars.sol",
  "compiler": {
    "name": "solc",
    "version": "0.8.5+commit.a4f2e591.Emscripten.clang"
  },
  "schemaVersion": "3.3.3",
  "updatedAt": "2021-07-17T12:55:08.446Z",
  "networkType": "ethereum",
  "devdoc": {
    "kind": "dev",
    "methods": {},
    "version": 1
  },
  "userdoc": {
    "kind": "user",
    "methods": {},
    "version": 1
  }
}