{
  "contractName": "BuyCars",
  "abi": [
    {
      "inputs": [
        {
          "internalType": "address",
          "name": "_btkaddr",
          "type": "address"
        }
      ],
      "stateMutability": "nonpayable",
      "type": "constructor"
    },
    {
      "anonymous": false,
      "inputs": [
        {
          "indexed": false,
          "internalType": "uint256",
          "name": "_tokens",
          "type": "uint256"
        }
      ],
      "name": "createOrderEvent",
      "type": "event"
    },
    {
      "inputs": [],
      "name": "CarID",
      "outputs": [
        {
          "internalType": "uint256",
          "name": "",
          "type": "uint256"
        }
      ],
      "stateMutability": "view",
      "type": "function",
      "constant": true
    },
    {
      "inputs": [
        {
          "internalType": "uint256",
          "name": "",
          "type": "uint256"
        }
      ],
      "name": "CarList",
      "outputs": [
        {
          "internalType": "uint256",
          "name": "price",
          "type": "uint256"
        },
        {
          "internalType": "string",
          "name": "brand",
          "type": "string"
        },
        {
          "internalType": "string",
          "name": "model",
          "type": "string"
        }
      ],
      "stateMutability": "view",
      "type": "function",
      "constant": true
    },
    {
      "inputs": [
        {
          "internalType": "uint256",
          "name": "",
          "type": "uint256"
        }
      ],
      "name": "Cars",
      "outputs": [
        {
          "internalType": "uint256",
          "name": "price",
          "type": "uint256"
        },
        {
          "internalType": "string",
          "name": "brand",
          "type": "string"
        },
        {
          "internalType": "string",
          "name": "model",
          "type": "string"
        }
      ],
      "stateMutability": "view",
      "type": "function",
      "constant": true
    },
    {
      "inputs": [],
      "name": "OrderID",
      "outputs": [
        {
          "internalType": "uint256",
          "name": "",
          "type": "uint256"
        }
      ],
      "stateMutability": "view",
      "type": "function",
      "constant": true
    },
    {
      "inputs": [
        {
          "internalType": "uint256",
          "name": "",
          "type": "uint256"
        }
      ],
      "name": "OrderList",
      "outputs": [
        {
          "internalType": "uint256",
          "name": "userID",
          "type": "uint256"
        },
        {
          "internalType": "uint256",
          "name": "carID",
          "type": "uint256"
        },
        {
          "internalType": "uint256",
          "name": "date",
          "type": "uint256"
        },
        {
          "internalType": "bool",
          "name": "active",
          "type": "bool"
        },
        {
          "internalType": "uint256",
          "name": "tokens",
          "type": "uint256"
        }
      ],
      "stateMutability": "view",
      "type": "function",
      "constant": true
    },
    {
      "inputs": [
        {
          "internalType": "uint256",
          "name": "",
          "type": "uint256"
        }
      ],
      "name": "Orders",
      "outputs": [
        {
          "internalType": "uint256",
          "name": "userID",
          "type": "uint256"
        },
        {
          "internalType": "uint256",
          "name": "carID",
          "type": "uint256"
        },
        {
          "internalType": "uint256",
          "name": "date",
          "type": "uint256"
        },
        {
          "internalType": "bool",
          "name": "active",
          "type": "bool"
        },
        {
          "internalType": "uint256",
          "name": "tokens",
          "type": "uint256"
        }
      ],
      "stateMutability": "view",
      "type": "function",
      "constant": true
    },
    {
      "inputs": [
        {
          "internalType": "uint256",
          "name": "",
          "type": "uint256"
        }
      ],
      "name": "ServiceOrderList",
      "outputs": [
        {
          "internalType": "address",
          "name": "userAddress",
          "type": "address"
        },
        {
          "internalType": "uint256",
          "name": "price",
          "type": "uint256"
        },
        {
          "internalType": "uint256",
          "name": "date",
          "type": "uint256"
        }
      ],
      "stateMutability": "view",
      "type": "function",
      "constant": true
    },
    {
      "inputs": [],
      "name": "ServicesOrderID",
      "outputs": [
        {
          "internalType": "uint256",
          "name": "",
          "type": "uint256"
        }
      ],
      "stateMutability": "view",
      "type": "function",
      "constant": true
    },
    {
      "inputs": [
        {
          "internalType": "uint256",
          "name": "",
          "type": "uint256"
        }
      ],
      "name": "ServicesOrders",
      "outputs": [
        {
          "internalType": "address",
          "name": "userAddress",
          "type": "address"
        },
        {
          "internalType": "uint256",
          "name": "price",
          "type": "uint256"
        },
        {
          "internalType": "uint256",
          "name": "date",
          "type": "uint256"
        }
      ],
      "stateMutability": "view",
      "type": "function",
      "constant": true
    },
    {
      "inputs": [],
      "name": "UserID",
      "outputs": [
        {
          "internalType": "uint256",
          "name": "",
          "type": "uint256"
        }
      ],
      "stateMutability": "view",
      "type": "function",
      "constant": true
    },
    {
      "inputs": [
        {
          "internalType": "uint256",
          "name": "",
          "type": "uint256"
        }
      ],
      "name": "UserIDs",
      "outputs": [
        {
          "internalType": "address",
          "name": "",
          "type": "address"
        }
      ],
      "stateMutability": "view",
      "type": "function",
      "constant": true
    },
    {
      "inputs": [
        {
          "internalType": "uint256",
          "name": "",
          "type": "uint256"
        }
      ],
      "name": "UserList",
      "outputs": [
        {
          "internalType": "string",
          "name": "name",
          "type": "string"
        },
        {
          "internalType": "uint256",
          "name": "tokens",
          "type": "uint256"
        }
      ],
      "stateMutability": "view",
      "type": "function",
      "constant": true
    },
    {
      "inputs": [
        {
          "internalType": "address",
          "name": "",
          "type": "address"
        }
      ],
      "name": "Users",
      "outputs": [
        {
          "internalType": "string",
          "name": "name",
          "type": "string"
        },
        {
          "internalType": "uint256",
          "name": "tokens",
          "type": "uint256"
        }
      ],
      "stateMutability": "view",
      "type": "function",
      "constant": true
    },
    {
      "inputs": [],
      "name": "accounter",
      "outputs": [
        {
          "internalType": "address",
          "name": "",
          "type": "address"
        }
      ],
      "stateMutability": "view",
      "type": "function",
      "constant": true
    },
    {
      "inputs": [],
      "name": "bonusTokenAddress",
      "outputs": [
        {
          "internalType": "address",
          "name": "",
          "type": "address"
        }
      ],
      "stateMutability": "view",
      "type": "function",
      "constant": true
    },
    {
      "inputs": [],
      "name": "owner",
      "outputs": [
        {
          "internalType": "address",
          "name": "",
          "type": "address"
        }
      ],
      "stateMutability": "view",
      "type": "function",
      "constant": true
    },
    {
      "inputs": [
        {
          "internalType": "address",
          "name": "_address",
          "type": "address"
        }
      ],
      "name": "setBonusTokenAddress",
      "outputs": [],
      "stateMutability": "nonpayable",
      "type": "function"
    },
    {
      "inputs": [
        {
          "internalType": "address",
          "name": "_address",
          "type": "address"
        }
      ],
      "name": "addAccounter",
      "outputs": [],
      "stateMutability": "nonpayable",
      "type": "function"
    },
    {
      "inputs": [
        {
          "internalType": "string",
          "name": "_name",
          "type": "string"
        },
        {
          "internalType": "address",
          "name": "_userAddress",
          "type": "address"
        }
      ],
      "name": "addUser",
      "outputs": [],
      "stateMutability": "nonpayable",
      "type": "function"
    },
    {
      "inputs": [
        {
          "internalType": "string",
          "name": "_brand",
          "type": "string"
        },
        {
          "internalType": "string",
          "name": "_model",
          "type": "string"
        },
        {
          "internalType": "uint256",
          "name": "_price",
          "type": "uint256"
        }
      ],
      "name": "addCar",
      "outputs": [],
      "stateMutability": "nonpayable",
      "type": "function"
    },
    {
      "inputs": [],
      "name": "viewCarsList",
      "outputs": [
        {
          "components": [
            {
              "internalType": "uint256",
              "name": "price",
              "type": "uint256"
            },
            {
              "internalType": "string",
              "name": "brand",
              "type": "string"
            },
            {
              "internalType": "string",
              "name": "model",
              "type": "string"
            }
          ],
          "internalType": "struct BuyCars.car[]",
          "name": "",
          "type": "tuple[]"
        }
      ],
      "stateMutability": "view",
      "type": "function",
      "constant": true
    },
    {
      "inputs": [],
      "name": "viewUserList",
      "outputs": [
        {
          "components": [
            {
              "internalType": "string",
              "name": "name",
              "type": "string"
            },
            {
              "internalType": "uint256",
              "name": "tokens",
              "type": "uint256"
            },
            {
              "internalType": "uint256[]",
              "name": "orders",
              "type": "uint256[]"
            }
          ],
          "internalType": "struct BuyCars.user[]",
          "name": "",
          "type": "tuple[]"
        }
      ],
      "stateMutability": "view",
      "type": "function",
      "constant": true
    },
    {
      "inputs": [],
      "name": "viewOrderList",
      "outputs": [
        {
          "components": [
            {
              "internalType": "uint256",
              "name": "userID",
              "type": "uint256"
            },
            {
              "internalType": "uint256",
              "name": "carID",
              "type": "uint256"
            },
            {
              "internalType": "uint256",
              "name": "date",
              "type": "uint256"
            },
            {
              "internalType": "bool",
              "name": "active",
              "type": "bool"
            },
            {
              "internalType": "uint256",
              "name": "tokens",
              "type": "uint256"
            }
          ],
          "internalType": "struct BuyCars.order[]",
          "name": "",
          "type": "tuple[]"
        }
      ],
      "stateMutability": "view",
      "type": "function",
      "constant": true
    },
    {
      "inputs": [],
      "name": "viewServiceOrderList",
      "outputs": [
        {
          "components": [
            {
              "internalType": "address",
              "name": "userAddress",
              "type": "address"
            },
            {
              "internalType": "uint256",
              "name": "price",
              "type": "uint256"
            },
            {
              "internalType": "uint256",
              "name": "date",
              "type": "uint256"
            }
          ],
          "internalType": "struct BuyCars.serviceOrder[]",
          "name": "",
          "type": "tuple[]"
        }
      ],
      "stateMutability": "view",
      "type": "function",
      "constant": true
    },
    {
      "inputs": [
        {
          "internalType": "uint256",
          "name": "_car_id",
          "type": "uint256"
        },
        {
          "internalType": "uint256",
          "name": "_user_id",
          "type": "uint256"
        }
      ],
      "name": "createOrder",
      "outputs": [],
      "stateMutability": "nonpayable",
      "type": "function"
    },
    {
      "inputs": [
        {
          "internalType": "address",
          "name": "_address",
          "type": "address"
        },
        {
          "internalType": "uint256",
          "name": "_price",
          "type": "uint256"
        }
      ],
      "name": "createServiceOrder",
      "outputs": [],
      "stateMutability": "nonpayable",
      "type": "function"
    },
    {
      "inputs": [
        {
          "internalType": "uint256",
          "name": "_servOrder_id",
          "type": "uint256"
        }
      ],
      "name": "payByTokens",
      "outputs": [],
      "stateMutability": "nonpayable",
      "type": "function"
    }
  ],
  "bytecode": "0x60806040523480156200001157600080fd5b5060405162002ef638038062002ef68339818101604052810190620000379190620000d6565b336000806101000a81548173ffffffffffffffffffffffffffffffffffffffff021916908373ffffffffffffffffffffffffffffffffffffffff16021790555080600160006101000a81548173ffffffffffffffffffffffffffffffffffffffff021916908373ffffffffffffffffffffffffffffffffffffffff160217905550506200015b565b600081519050620000d08162000141565b92915050565b600060208284031215620000ef57620000ee6200013c565b5b6000620000ff84828501620000bf565b91505092915050565b600062000115826200011c565b9050919050565b600073ffffffffffffffffffffffffffffffffffffffff82169050919050565b600080fd5b6200014c8162000108565b81146200015857600080fd5b50565b612d8b806200016b6000396000f3fe608060405234801561001057600080fd5b50600436106101a95760003560e01c80638fb326f2116100f9578063baf49c4a11610097578063e4f2ee7811610071578063e4f2ee78146104de578063ea3e7909146104fc578063eaaedd591461051a578063f40e03c21461054c576101a9565b8063baf49c4a14610472578063bd5c6a89146104a4578063cfcdf443146104c0576101a9565b806399b956a0116100d357806399b956a0146103d65780639aadee0214610407578063a94661e314610425578063babe165514610441576101a9565b80638fb326f214610354578063907256ea146103885780639583daf5146103a4576101a9565b80633a07f8d3116101665780637331d7e9116101405780637331d7e9146102e057806379109baa146102fe578063864a0d0a1461031a5780638da5cb5b14610336576101a9565b80633a07f8d3146102865780634702272b146102a4578063663911e9146102c2576101a9565b80630212d0b9146101ae57806305574ee9146101ca57806306b099af146101e65780630fe579c01461021a578063193a7e40146102385780632dc7e90114610256575b600080fd5b6101c860048036038101906101c39190612093565b61057e565b005b6101e460048036038101906101df9190612008565b610768565b005b61020060048036038101906101fb9190612093565b610918565b6040516102119594939291906127e8565b60405180910390f35b61022261096b565b60405161022f91906126f6565b60405180910390f35b610240610abe565b60405161024d91906125de565b60405180910390f35b610270600480360381019061026b9190612093565b610ae4565b60405161027d91906125de565b60405180910390f35b61028e610b17565b60405161029b9190612788565b60405180910390f35b6102ac610b1d565b6040516102b99190612690565b60405180910390f35b6102ca610caa565b6040516102d791906126d4565b60405180910390f35b6102e8610d73565b6040516102f59190612788565b60405180910390f35b610318600480360381019061031391906120c0565b610d79565b005b610334600480360381019061032f9190611fac565b611174565b005b61033e611378565b60405161034b91906125de565b60405180910390f35b61036e60048036038101906103699190612093565b61139c565b60405161037f9594939291906127e8565b60405180910390f35b6103a2600480360381019061039d9190611f12565b6113df565b005b6103be60048036038101906103b99190612093565b6114b1565b6040516103cd939291906127a3565b60405180910390f35b6103f060048036038101906103eb9190611f12565b6115fb565b6040516103fe929190612718565b60405180910390f35b61040f6116a7565b60405161041c9190612788565b60405180910390f35b61043f600480360381019061043a9190611f12565b6116ad565b005b61045b60048036038101906104569190612093565b61177f565b604051610469929190612718565b60405180910390f35b61048c60048036038101906104879190612093565b61183b565b60405161049b93929190612659565b60405180910390f35b6104be60048036038101906104b99190611f3f565b611885565b005b6104c8611a7f565b6040516104d591906125de565b60405180910390f35b6104e6611aa5565b6040516104f391906126b2565b60405180910390f35b610504611b47565b6040516105119190612788565b60405180910390f35b610534600480360381019061052f9190612093565b611b4d565b60405161054393929190612659565b60405180910390f35b61056660048036038101906105619190612093565b611ba7565b604051610575939291906127a3565b60405180910390f35b6000600f600083815260200190815260200160002060010154905080600b60003373ffffffffffffffffffffffffffffffffffffffff1673ffffffffffffffffffffffffffffffffffffffff16815260200190815260200160002060010154101561061e576040517f08c379a000000000000000000000000000000000000000000000000000000000815260040161061590612768565b60405180910390fd5b6000600160009054906101000a900473ffffffffffffffffffffffffffffffffffffffff1690508073ffffffffffffffffffffffffffffffffffffffff166323b872dd33600260009054906101000a900473ffffffffffffffffffffffffffffffffffffffff16670de0b6b3a7640000866106999190612a62565b6040518463ffffffff1660e01b81526004016106b7939291906125f9565b602060405180830381600087803b1580156106d157600080fd5b505af11580156106e5573d6000803e3d6000fd5b505050506040513d601f19601f820116820180604052508101906107099190611f7f565b5081600b60003373ffffffffffffffffffffffffffffffffffffffff1673ffffffffffffffffffffffffffffffffffffffff168152602001908152602001600020600101600082825461075c9190612abc565b92505081905550505050565b3373ffffffffffffffffffffffffffffffffffffffff1660008054906101000a900473ffffffffffffffffffffffffffffffffffffffff1673ffffffffffffffffffffffffffffffffffffffff16146107f6576040517f08c379a00000000000000000000000000000000000000000000000000000000081526004016107ed90612748565b60405180910390fd5b60016004600082825461080991906129db565b9250508190555082600d60006004548152602001908152602001600020600101908051906020019061083c929190611ce1565b5081600d600060045481526020019081526020016000206002019080519060200190610869929190611ce1565b5080600d60006004548152602001908152602001600020600001819055506007600d6000600454815260200190815260200160002090806001815401808255809150506001900390600052602060002090600302016000909190919091506000820154816000015560018201816001019080546108e590612b7a565b6108f0929190611d67565b50600282018160020190805461090590612b7a565b610910929190611d67565b505050505050565b6009818154811061092857600080fd5b90600052602060002090600502016000915090508060000154908060010154908060020154908060030160009054906101000a900460ff16908060040154905085565b60606008805480602002602001604051908101604052809291908181526020016000905b82821015610ab557838290600052602060002090600302016040518060600160405290816000820180546109c290612b7a565b80601f01602080910402602001604051908101604052809291908181526020018280546109ee90612b7a565b8015610a3b5780601f10610a1057610100808354040283529160200191610a3b565b820191906000526020600020905b815481529060010190602001808311610a1e57829003601f168201915b505050505081526020016001820154815260200160028201805480602002602001604051908101604052809291908181526020018280548015610a9d57602002820191906000526020600020905b815481526020019060010190808311610a89575b5050505050815250508152602001906001019061098f565b50505050905090565b600260009054906101000a900473ffffffffffffffffffffffffffffffffffffffff1681565b600c6020528060005260406000206000915054906101000a900473ffffffffffffffffffffffffffffffffffffffff1681565b60065481565b60606007805480602002602001604051908101604052809291908181526020016000905b82821015610ca1578382906000526020600020906003020160405180606001604052908160008201548152602001600182018054610b7e90612b7a565b80601f0160208091040260200160405190810160405280929190818152602001828054610baa90612b7a565b8015610bf75780601f10610bcc57610100808354040283529160200191610bf7565b820191906000526020600020905b815481529060010190602001808311610bda57829003601f168201915b50505050508152602001600282018054610c1090612b7a565b80601f0160208091040260200160405190810160405280929190818152602001828054610c3c90612b7a565b8015610c895780601f10610c5e57610100808354040283529160200191610c89565b820191906000526020600020905b815481529060010190602001808311610c6c57829003601f168201915b50505050508152505081526020019060010190610b41565b50505050905090565b6060600a805480602002602001604051908101604052809291908181526020016000905b82821015610d6a57838290600052602060002090600302016040518060600160405290816000820160009054906101000a900473ffffffffffffffffffffffffffffffffffffffff1673ffffffffffffffffffffffffffffffffffffffff1673ffffffffffffffffffffffffffffffffffffffff1681526020016001820154815260200160028201548152505081526020019060010190610cce565b50505050905090565b60055481565b3373ffffffffffffffffffffffffffffffffffffffff1660008054906101000a900473ffffffffffffffffffffffffffffffffffffffff1673ffffffffffffffffffffffffffffffffffffffff1614610e07576040517f08c379a0000000000000000000000000000000000000000000000000000000008152600401610dfe90612748565b60405180910390fd5b600160056000828254610e1a91906129db565b9250508190555080600e600060055481526020019081526020016000206000018190555081600e600060055481526020019081526020016000206001018190555042600e60006005548152602001908152602001600020600201819055506001600e6000600554815260200190815260200160002060030160006101000a81548160ff0219169083151502179055506000600c600083815260200190815260200160002060009054906101000a900473ffffffffffffffffffffffffffffffffffffffff169050600b60008273ffffffffffffffffffffffffffffffffffffffff1673ffffffffffffffffffffffffffffffffffffffff168152602001908152602001600020600201600554908060018154018082558091505060019003906000526020600020016000909190919091505560006064600d600086815260200190815260200160002060000154610f719190612a31565b905080600e600060055481526020019081526020016000206004018190555080600b60008473ffffffffffffffffffffffffffffffffffffffff1673ffffffffffffffffffffffffffffffffffffffff168152602001908152602001600020600101819055506000600160009054906101000a900473ffffffffffffffffffffffffffffffffffffffff1690508073ffffffffffffffffffffffffffffffffffffffff166340c10f1984670de0b6b3a76400008561102f9190612a62565b6040518363ffffffff1660e01b815260040161104c929190612630565b602060405180830381600087803b15801561106657600080fd5b505af115801561107a573d6000803e3d6000fd5b505050506040513d601f19601f8201168201806040525081019061109e9190611f7f565b507f69779996a991d45551f764f92d74f416ae6ccbff1babfa7b555efb59cde59adf826040516110ce9190612788565b60405180910390a16009600e6000600554815260200190815260200160002090806001815401808255809150506001900390600052602060002090600502016000909190919091506000820154816000015560018201548160010155600282015481600201556003820160009054906101000a900460ff168160030160006101000a81548160ff0219169083151502179055506004820154816004015550505050505050565b3373ffffffffffffffffffffffffffffffffffffffff1660008054906101000a900473ffffffffffffffffffffffffffffffffffffffff1673ffffffffffffffffffffffffffffffffffffffff1614611202576040517f08c379a00000000000000000000000000000000000000000000000000000000081526004016111f990612748565b60405180910390fd5b60016003600082825461121591906129db565b9250508190555081600b60008373ffffffffffffffffffffffffffffffffffffffff1673ffffffffffffffffffffffffffffffffffffffff1681526020019081526020016000206000019080519060200190611272929190611ce1565b5080600c6000600354815260200190815260200160002060006101000a81548173ffffffffffffffffffffffffffffffffffffffff021916908373ffffffffffffffffffffffffffffffffffffffff1602179055506008600b60008373ffffffffffffffffffffffffffffffffffffffff1673ffffffffffffffffffffffffffffffffffffffff1681526020019081526020016000209080600181540180825580915050600190039060005260206000209060030201600090919091909150600082018160000190805461134590612b7a565b611350929190611d67565b50600182015481600101556002820181600201908054611371929190611df4565b5050505050565b60008054906101000a900473ffffffffffffffffffffffffffffffffffffffff1681565b600e6020528060005260406000206000915090508060000154908060010154908060020154908060030160009054906101000a900460ff16908060040154905085565b3373ffffffffffffffffffffffffffffffffffffffff1660008054906101000a900473ffffffffffffffffffffffffffffffffffffffff1673ffffffffffffffffffffffffffffffffffffffff161461146d576040517f08c379a000000000000000000000000000000000000000000000000000000000815260040161146490612748565b60405180910390fd5b80600260006101000a81548173ffffffffffffffffffffffffffffffffffffffff021916908373ffffffffffffffffffffffffffffffffffffffff16021790555050565b600781815481106114c157600080fd5b90600052602060002090600302016000915090508060000154908060010180546114ea90612b7a565b80601f016020809104026020016040519081016040528092919081815260200182805461151690612b7a565b80156115635780601f1061153857610100808354040283529160200191611563565b820191906000526020600020905b81548152906001019060200180831161154657829003601f168201915b50505050509080600201805461157890612b7a565b80601f01602080910402602001604051908101604052809291908181526020018280546115a490612b7a565b80156115f15780601f106115c6576101008083540402835291602001916115f1565b820191906000526020600020905b8154815290600101906020018083116115d457829003601f168201915b5050505050905083565b600b60205280600052604060002060009150905080600001805461161e90612b7a565b80601f016020809104026020016040519081016040528092919081815260200182805461164a90612b7a565b80156116975780601f1061166c57610100808354040283529160200191611697565b820191906000526020600020905b81548152906001019060200180831161167a57829003601f168201915b5050505050908060010154905082565b60035481565b3373ffffffffffffffffffffffffffffffffffffffff1660008054906101000a900473ffffffffffffffffffffffffffffffffffffffff1673ffffffffffffffffffffffffffffffffffffffff161461173b576040517f08c379a000000000000000000000000000000000000000000000000000000000815260040161173290612748565b60405180910390fd5b80600160006101000a81548173ffffffffffffffffffffffffffffffffffffffff021916908373ffffffffffffffffffffffffffffffffffffffff16021790555050565b6008818154811061178f57600080fd5b90600052602060002090600302016000915090508060000180546117b290612b7a565b80601f01602080910402602001604051908101604052809291908181526020018280546117de90612b7a565b801561182b5780601f106118005761010080835404028352916020019161182b565b820191906000526020600020905b81548152906001019060200180831161180e57829003601f168201915b5050505050908060010154905082565b600f6020528060005260406000206000915090508060000160009054906101000a900473ffffffffffffffffffffffffffffffffffffffff16908060010154908060020154905083565b3373ffffffffffffffffffffffffffffffffffffffff1660008054906101000a900473ffffffffffffffffffffffffffffffffffffffff1673ffffffffffffffffffffffffffffffffffffffff1614611913576040517f08c379a000000000000000000000000000000000000000000000000000000000815260040161190a90612748565b60405180910390fd5b60016006600082825461192691906129db565b9250508190555081600f6000600654815260200190815260200160002060000160006101000a81548173ffffffffffffffffffffffffffffffffffffffff021916908373ffffffffffffffffffffffffffffffffffffffff16021790555080600f600060065481526020019081526020016000206001018190555042600f6000600654815260200190815260200160002060020181905550600a600f6000600654815260200190815260200160002090806001815401808255809150506001900390600052602060002090600302016000909190919091506000820160009054906101000a900473ffffffffffffffffffffffffffffffffffffffff168160000160006101000a81548173ffffffffffffffffffffffffffffffffffffffff021916908373ffffffffffffffffffffffffffffffffffffffff160217905550600182015481600101556002820154816002015550505050565b600160009054906101000a900473ffffffffffffffffffffffffffffffffffffffff1681565b60606009805480602002602001604051908101604052809291908181526020016000905b82821015611b3e57838290600052602060002090600502016040518060a00160405290816000820154815260200160018201548152602001600282015481526020016003820160009054906101000a900460ff1615151515815260200160048201548152505081526020019060010190611ac9565b50505050905090565b60045481565b600a8181548110611b5d57600080fd5b90600052602060002090600302016000915090508060000160009054906101000a900473ffffffffffffffffffffffffffffffffffffffff16908060010154908060020154905083565b600d602052806000526040600020600091509050806000015490806001018054611bd090612b7a565b80601f0160208091040260200160405190810160405280929190818152602001828054611bfc90612b7a565b8015611c495780601f10611c1e57610100808354040283529160200191611c49565b820191906000526020600020905b815481529060010190602001808311611c2c57829003601f168201915b505050505090806002018054611c5e90612b7a565b80601f0160208091040260200160405190810160405280929190818152602001828054611c8a90612b7a565b8015611cd75780601f10611cac57610100808354040283529160200191611cd7565b820191906000526020600020905b815481529060010190602001808311611cba57829003601f168201915b5050505050905083565b828054611ced90612b7a565b90600052602060002090601f016020900481019282611d0f5760008555611d56565b82601f10611d2857805160ff1916838001178555611d56565b82800160010185558215611d56579182015b82811115611d55578251825591602001919060010190611d3a565b5b509050611d639190611e46565b5090565b828054611d7390612b7a565b90600052602060002090601f016020900481019282611d955760008555611de3565b82601f10611da65780548555611de3565b82800160010185558215611de357600052602060002091601f016020900482015b82811115611de2578254825591600101919060010190611dc7565b5b509050611df09190611e46565b5090565b828054828255906000526020600020908101928215611e355760005260206000209182015b82811115611e34578254825591600101919060010190611e19565b5b509050611e429190611e46565b5090565b5b80821115611e5f576000816000905550600101611e47565b5090565b6000611e76611e7184612860565b61283b565b905082815260208101848484011115611e9257611e91612c9e565b5b611e9d848285612b38565b509392505050565b600081359050611eb481612d10565b92915050565b600081519050611ec981612d27565b92915050565b600082601f830112611ee457611ee3612c99565b5b8135611ef4848260208601611e63565b91505092915050565b600081359050611f0c81612d3e565b92915050565b600060208284031215611f2857611f27612ca8565b5b6000611f3684828501611ea5565b91505092915050565b60008060408385031215611f5657611f55612ca8565b5b6000611f6485828601611ea5565b9250506020611f7585828601611efd565b9150509250929050565b600060208284031215611f9557611f94612ca8565b5b6000611fa384828501611eba565b91505092915050565b60008060408385031215611fc357611fc2612ca8565b5b600083013567ffffffffffffffff811115611fe157611fe0612ca3565b5b611fed85828601611ecf565b9250506020611ffe85828601611ea5565b9150509250929050565b60008060006060848603121561202157612020612ca8565b5b600084013567ffffffffffffffff81111561203f5761203e612ca3565b5b61204b86828701611ecf565b935050602084013567ffffffffffffffff81111561206c5761206b612ca3565b5b61207886828701611ecf565b925050604061208986828701611efd565b9150509250925092565b6000602082840312156120a9576120a8612ca8565b5b60006120b784828501611efd565b91505092915050565b600080604083850312156120d7576120d6612ca8565b5b60006120e585828601611efd565b92505060206120f685828601611efd565b9150509250929050565b600061210c8383612468565b905092915050565b600061212083836124bf565b60a08301905092915050565b60006121388383612527565b60608301905092915050565b60006121508383612569565b905092915050565b600061216483836125c0565b60208301905092915050565b61217981612af0565b82525050565b61218881612af0565b82525050565b6000612199826128e1565b6121a38185612964565b9350836020820285016121b585612891565b8060005b858110156121f157848403895281516121d28582612100565b94506121dd83612923565b925060208a019950506001810190506121b9565b50829750879550505050505092915050565b600061220e826128ec565b6122188185612975565b9350612223836128a1565b8060005b8381101561225457815161223b8882612114565b975061224683612930565b925050600181019050612227565b5085935050505092915050565b600061226c826128f7565b6122768185612986565b9350612281836128b1565b8060005b838110156122b2578151612299888261212c565b97506122a48361293d565b925050600181019050612285565b5085935050505092915050565b60006122ca82612902565b6122d48185612997565b9350836020820285016122e6856128c1565b8060005b8581101561232257848403895281516123038582612144565b945061230e8361294a565b925060208a019950506001810190506122ea565b50829750879550505050505092915050565b600061233f8261290d565b61234981856129a8565b9350612354836128d1565b8060005b8381101561238557815161236c8882612158565b975061237783612957565b925050600181019050612358565b5085935050505092915050565b61239b81612b02565b82525050565b6123aa81612b02565b82525050565b60006123bb82612918565b6123c581856129b9565b93506123d5818560208601612b47565b6123de81612cad565b840191505092915050565b60006123f482612918565b6123fe81856129ca565b935061240e818560208601612b47565b61241781612cad565b840191505092915050565b600061242f6016836129ca565b915061243a82612cbe565b602082019050919050565b60006124526012836129ca565b915061245d82612ce7565b602082019050919050565b600060608301600083015161248060008601826125c0565b506020830151848203602086015261249882826123b0565b915050604083015184820360408601526124b282826123b0565b9150508091505092915050565b60a0820160008201516124d560008501826125c0565b5060208201516124e860208501826125c0565b5060408201516124fb60408501826125c0565b50606082015161250e6060850182612392565b50608082015161252160808501826125c0565b50505050565b60608201600082015161253d6000850182612170565b50602082015161255060208501826125c0565b50604082015161256360408501826125c0565b50505050565b6000606083016000830151848203600086015261258682826123b0565b915050602083015161259b60208601826125c0565b50604083015184820360408601526125b38282612334565b9150508091505092915050565b6125c981612b2e565b82525050565b6125d881612b2e565b82525050565b60006020820190506125f3600083018461217f565b92915050565b600060608201905061260e600083018661217f565b61261b602083018561217f565b61262860408301846125cf565b949350505050565b6000604082019050612645600083018561217f565b61265260208301846125cf565b9392505050565b600060608201905061266e600083018661217f565b61267b60208301856125cf565b61268860408301846125cf565b949350505050565b600060208201905081810360008301526126aa818461218e565b905092915050565b600060208201905081810360008301526126cc8184612203565b905092915050565b600060208201905081810360008301526126ee8184612261565b905092915050565b6000602082019050818103600083015261271081846122bf565b905092915050565b6000604082019050818103600083015261273281856123e9565b905061274160208301846125cf565b9392505050565b6000602082019050818103600083015261276181612422565b9050919050565b6000602082019050818103600083015261278181612445565b9050919050565b600060208201905061279d60008301846125cf565b92915050565b60006060820190506127b860008301866125cf565b81810360208301526127ca81856123e9565b905081810360408301526127de81846123e9565b9050949350505050565b600060a0820190506127fd60008301886125cf565b61280a60208301876125cf565b61281760408301866125cf565b61282460608301856123a1565b61283160808301846125cf565b9695505050505050565b6000612845612856565b90506128518282612bac565b919050565b6000604051905090565b600067ffffffffffffffff82111561287b5761287a612c6a565b5b61288482612cad565b9050602081019050919050565b6000819050602082019050919050565b6000819050602082019050919050565b6000819050602082019050919050565b6000819050602082019050919050565b6000819050602082019050919050565b600081519050919050565b600081519050919050565b600081519050919050565b600081519050919050565b600081519050919050565b600081519050919050565b6000602082019050919050565b6000602082019050919050565b6000602082019050919050565b6000602082019050919050565b6000602082019050919050565b600082825260208201905092915050565b600082825260208201905092915050565b600082825260208201905092915050565b600082825260208201905092915050565b600082825260208201905092915050565b600082825260208201905092915050565b600082825260208201905092915050565b60006129e682612b2e565b91506129f183612b2e565b9250827fffffffffffffffffffffffffffffffffffffffffffffffffffffffffffffffff03821115612a2657612a25612bdd565b5b828201905092915050565b6000612a3c82612b2e565b9150612a4783612b2e565b925082612a5757612a56612c0c565b5b828204905092915050565b6000612a6d82612b2e565b9150612a7883612b2e565b9250817fffffffffffffffffffffffffffffffffffffffffffffffffffffffffffffffff0483118215151615612ab157612ab0612bdd565b5b828202905092915050565b6000612ac782612b2e565b9150612ad283612b2e565b925082821015612ae557612ae4612bdd565b5b828203905092915050565b6000612afb82612b0e565b9050919050565b60008115159050919050565b600073ffffffffffffffffffffffffffffffffffffffff82169050919050565b6000819050919050565b82818337600083830152505050565b60005b83811015612b65578082015181840152602081019050612b4a565b83811115612b74576000848401525b50505050565b60006002820490506001821680612b9257607f821691505b60208210811415612ba657612ba5612c3b565b5b50919050565b612bb582612cad565b810181811067ffffffffffffffff82111715612bd457612bd3612c6a565b5b80604052505050565b7f4e487b7100000000000000000000000000000000000000000000000000000000600052601160045260246000fd5b7f4e487b7100000000000000000000000000000000000000000000000000000000600052601260045260246000fd5b7f4e487b7100000000000000000000000000000000000000000000000000000000600052602260045260246000fd5b7f4e487b7100000000000000000000000000000000000000000000000000000000600052604160045260246000fd5b600080fd5b600080fd5b600080fd5b600080fd5b6000601f19601f8301169050919050565b7f4f6e6c79206f776e65722063616e20646f207468697300000000000000000000600082015250565b7f4e6f7420656e6f7567687420746f6b656e730000000000000000000000000000600082015250565b612d1981612af0565b8114612d2457600080fd5b50565b612d3081612b02565b8114612d3b57600080fd5b50565b612d4781612b2e565b8114612d5257600080fd5b5056fea26469706673582212203e5dab26f2706ec57f5c27f4967a529f247737a5212ecaabb09057836c529ed264736f6c63430008050033",
  "immutableReferences": {},
  "source": "pragma solidity ^0.8.5;\npragma experimental ABIEncoderV2;\n\nimport \"./IERC20.sol\";\n\ncontract BuyCars {\n    \n    \n    address public owner;\n    address public bonusTokenAddress;\n    address public accounter;\n    \n    event createOrderEvent(uint _tokens);\n    \n    constructor(address _btkaddr) {\n        owner = msg.sender;\n        bonusTokenAddress = _btkaddr;\n    }\n    \n    \n    modifier onlyOwner() {\n        require(owner == msg.sender, \"Only owner can do this\");\n        _;\n    }\n    \n    \n    uint public UserID;\n    uint public CarID;\n    uint public OrderID;\n    uint public ServicesOrderID;\n\n    \n    \n    struct car {\n        uint price;\n        string brand;\n        string model;\n    }\n\n    \n    struct order {\n        uint userID;\n        uint carID;\n        uint date;\n        bool active;\n        uint tokens;\n    }\n\n    struct serviceOrder {\n        address userAddress;\n        uint price;\n        uint date;\n    }\n    \n    struct user {\n        string name;\n        uint tokens;\n        uint[] orders;\n    }\n\n    car[] public CarList;\n    user[] public UserList;\n    order[] public OrderList;\n    serviceOrder[] public ServiceOrderList;\n\n    \n    mapping(address => user) public Users;\n    mapping(uint => address) public UserIDs;\n    mapping(uint => car) public Cars;\n    mapping(uint => order) public Orders;\n    mapping(uint => serviceOrder) public ServicesOrders;\n    \n    \n    //FUNCTIONS\n    \n    //Function for adding users to smart contract\n    \n    function setBonusTokenAddress(address _address) public onlyOwner {\n        bonusTokenAddress = _address;\n    }\n\n    function addAccounter (address _address) public onlyOwner {\n        accounter = _address;\n    }\n    \n    \n    function addUser(string memory _name, address _userAddress) public onlyOwner {\n        UserID += 1;\n        Users[_userAddress].name = _name;\n        UserIDs[UserID] = _userAddress;\n        UserList.push(Users[_userAddress]);\n    }\n    \n    function addCar(string memory _brand, string memory _model, uint _price) public onlyOwner {\n        CarID += 1;\n        Cars[CarID].brand = _brand;\n        Cars[CarID].model = _model;\n        Cars[CarID].price = _price;\n        CarList.push(Cars[CarID]);\n    }\n\n    function viewCarsList() public  view returns(car[] memory) {\n        return CarList;\n    }\n\n    function viewUserList() public view returns(user[] memory) {\n        return UserList;\n    }\n\n    function viewOrderList() public view returns(order[] memory) {\n        return OrderList;\n    }\n\n    function viewServiceOrderList() public view returns(serviceOrder[] memory) {\n        return ServiceOrderList;\n    }\n     \n    \n    function createOrder(uint _car_id, uint _user_id) public onlyOwner {\n        OrderID += 1;\n        Orders[OrderID].userID = _user_id;\n        Orders[OrderID].carID = _car_id;\n        Orders[OrderID].date = block.timestamp;\n        Orders[OrderID].active = true;\n        address _user_address = UserIDs[_user_id];\n        Users[_user_address].orders.push(OrderID);\n        uint _tokens = Cars[_car_id].price/100; \n        Orders[OrderID].tokens = _tokens;\n        Users[_user_address].tokens = _tokens;\n        IERC20 _bonusToken = IERC20(bonusTokenAddress);\n        _bonusToken.mint(_user_address, _tokens * 10 ** 18);\n        emit createOrderEvent(_tokens);  \n        OrderList.push(Orders[OrderID]);\n    }\n\n    function createServiceOrder (address _address, uint _price) public onlyOwner {\n        ServicesOrderID += 1;\n        ServicesOrders[ServicesOrderID].userAddress = _address;\n        ServicesOrders[ServicesOrderID].price = _price;\n        ServicesOrders[ServicesOrderID].date = block.timestamp;\n        ServiceOrderList.push(ServicesOrders[ServicesOrderID]);\n    }\n\n    /*\n    function checkUserTokens(uint _order_id, uint _user_id) public onlyOwner {\n\n    }\n    */\n\n    function payByTokens(uint _servOrder_id) public {\n        uint _serviceAmount = ServicesOrders[_servOrder_id].price;\n        require(Users[msg.sender].tokens >= _serviceAmount, \"Not enought tokens\");\n        IERC20 _bon_token = IERC20(bonusTokenAddress);\n        _bon_token.transferFrom(msg.sender, accounter, _serviceAmount * 10 ** 18);\n        Users[msg.sender].tokens -= _serviceAmount;\n    }\n\n    \n    \n    \n    \n}",
  "sourcePath": "/Users/pro/Development/blockchain/solidity_course/solidity_cars/contracts/BuyCars.sol",
  "compiler": {
    "name": "solc",
    "version": "0.8.5+commit.a4f2e591.Emscripten.clang"
  },
  "schemaVersion": "3.3.3",
  "updatedAt": "2021-07-17T12:12:03.858Z",
  "networkType": "ethereum",
  "devdoc": {
    "kind": "dev",
    "methods": {},
    "version": 1
  },
  "userdoc": {
    "kind": "user",
    "methods": {},
    "version": 1
  }
}